{
  "address": "0x9c12c5D5ad6F34Bc66AeEF5411FCf07CFfe95FC8",
  "abi": [
    {
      "inputs": [
        {
          "internalType": "address",
          "name": "_mint1155",
          "type": "address"
        }
      ],
      "stateMutability": "nonpayable",
      "type": "constructor"
    },
    {
      "inputs": [
        {
          "internalType": "address",
          "name": "owner",
          "type": "address"
        }
      ],
      "name": "OwnableInvalidOwner",
      "type": "error"
    },
    {
      "inputs": [
        {
          "internalType": "address",
          "name": "account",
          "type": "address"
        }
      ],
      "name": "OwnableUnauthorizedAccount",
      "type": "error"
    },
    {
      "anonymous": false,
      "inputs": [
        {
          "indexed": true,
          "internalType": "address",
          "name": "previousOwner",
          "type": "address"
        },
        {
          "indexed": true,
          "internalType": "address",
          "name": "newOwner",
          "type": "address"
        }
      ],
      "name": "OwnershipTransferred",
      "type": "event"
    },
    {
      "inputs": [
        {
          "internalType": "uint256[]",
          "name": "ids",
          "type": "uint256[]"
        }
      ],
      "name": "forgeItem",
      "outputs": [],
      "stateMutability": "nonpayable",
      "type": "function"
    },
    {
      "inputs": [],
      "name": "mint1155",
      "outputs": [
        {
          "internalType": "contract IMint1155",
          "name": "",
          "type": "address"
        }
      ],
      "stateMutability": "view",
      "type": "function"
    },
    {
      "inputs": [],
      "name": "owner",
      "outputs": [
        {
          "internalType": "address",
          "name": "",
          "type": "address"
        }
      ],
      "stateMutability": "view",
      "type": "function"
    },
    {
      "inputs": [],
      "name": "renounceOwnership",
      "outputs": [],
      "stateMutability": "nonpayable",
      "type": "function"
    },
    {
      "inputs": [
        {
          "internalType": "address",
          "name": "newOwner",
          "type": "address"
        }
      ],
      "name": "transferOwnership",
      "outputs": [],
      "stateMutability": "nonpayable",
      "type": "function"
    }
  ],
  "transactionHash": "0x1e51f654f1370ddff8b8037190b8666daea782de27f755aafc422a1a05732a3b",
  "args": [
    "0x742f82A0704dB5F0442F6Cfaf3A4d937A79ec1c9"
  ],
  "numDeployments": 2,
  "solcInputHash": "ddbd66f9000247f37eba71a1f5a925f0",
  "bytecode": "0x608060405234801561001057600080fd5b506040516109a43803806109a483398101604081905261002f916100d4565b338061005557604051631e4fbdf760e01b81526000600482015260240160405180910390fd5b61005e81610084565b50600180546001600160a01b0319166001600160a01b0392909216919091179055610104565b600080546001600160a01b038381166001600160a01b0319831681178455604051919092169283917f8be0079c531659141344cd1fd0a4f28419497f9722a3daafe3b4186f6b6457e09190a35050565b6000602082840312156100e657600080fd5b81516001600160a01b03811681146100fd57600080fd5b9392505050565b610891806101136000396000f3fe608060405234801561001057600080fd5b50600436106100575760003560e01c80631bb987921461005c57806330e348d41461008b578063715018a6146100a05780638da5cb5b146100a8578063f2fde38b146100b9575b600080fd5b60015461006f906001600160a01b031681565b6040516001600160a01b03909116815260200160405180910390f35b61009e61009936600461071f565b6100cc565b005b61009e61063a565b6000546001600160a01b031661006f565b61009e6100c73660046107dd565b61064e565b600081516002036102c6576000826000815181106100ec576100ec61080d565b6020026020010151905060008360018151811061010b5761010b61080d565b602002602001015190508160001480156101255750806001145b806101395750816001148015610139575080155b1561014757600392506101ef565b8160011480156101575750806002145b8061016d575081600214801561016d5750806001145b1561017b57600492506101ef565b811580156101895750806002145b8061019d575081600214801561019d575080155b156101ab57600592506101ef565b60405162461bcd60e51b8152602060048201526014602482015273496e76616c696420322d6974656d20636f6d626f60601b60448201526064015b60405180910390fd5b60018054604051637921219560e11b81526001600160a01b039091169163f242432a916102259133916000918891600401610823565b600060405180830381600087803b15801561023f57600080fd5b505af1158015610253573d6000803e3d6000fd5b505060018054604051637921219560e11b81526001600160a01b03909116935063f242432a925061028d9133916000918791600401610823565b600060405180830381600087803b1580156102a757600080fd5b505af11580156102bb573d6000803e3d6000fd5b5050505050506105bd565b8151600303610575576000826000815181106102e4576102e461080d565b602002602001015190506000836001815181106103035761030361080d565b602002602001015190506000846002815181106103225761032261080d565b6020026020010151905082600014801561033c5750816001145b80156103485750806002145b8061036857508215801561035c5750816002145b80156103685750806001145b80610388575082600114801561037c575081155b80156103885750806002145b806103a8575082600114801561039e5750816002145b80156103a8575080155b806103c857508260021480156103bc575081155b80156103c85750806001145b806103e857508260021480156103de5750816001145b80156103e8575080155b1561052e5760018054604051637921219560e11b8152600696506001600160a01b039091169163f242432a916104279133916000918991600401610823565b600060405180830381600087803b15801561044157600080fd5b505af1158015610455573d6000803e3d6000fd5b505060018054604051637921219560e11b81526001600160a01b03909116935063f242432a925061048f9133916000918891600401610823565b600060405180830381600087803b1580156104a957600080fd5b505af11580156104bd573d6000803e3d6000fd5b505060018054604051637921219560e11b81526001600160a01b03909116935063f242432a92506104f79133916000918791600401610823565b600060405180830381600087803b15801561051157600080fd5b505af1158015610525573d6000803e3d6000fd5b5050505061056d565b60405162461bcd60e51b8152602060048201526014602482015273496e76616c696420332d6974656d20636f6d626f60601b60448201526064016101e6565b5050506105bd565b60405162461bcd60e51b815260206004820152601760248201527f496e76616c6964206e756d626572206f66206974656d7300000000000000000060448201526064016101e6565b60018054604051630bc2d73b60e11b815233600482015260248101849052604481019290925260806064830152600060848301526001600160a01b031690631785ae769060a401600060405180830381600087803b15801561061e57600080fd5b505af1158015610632573d6000803e3d6000fd5b505050505050565b61064261068c565b61064c60006106b9565b565b61065661068c565b6001600160a01b03811661068057604051631e4fbdf760e01b8152600060048201526024016101e6565b610689816106b9565b50565b6000546001600160a01b0316331461064c5760405163118cdaa760e01b81523360048201526024016101e6565b600080546001600160a01b038381166001600160a01b0319831681178455604051919092169283917f8be0079c531659141344cd1fd0a4f28419497f9722a3daafe3b4186f6b6457e09190a35050565b634e487b7160e01b600052604160045260246000fd5b6000602080838503121561073257600080fd5b823567ffffffffffffffff8082111561074a57600080fd5b818501915085601f83011261075e57600080fd5b81358181111561077057610770610709565b8060051b604051601f19603f8301168101818110858211171561079557610795610709565b6040529182528482019250838101850191888311156107b357600080fd5b938501935b828510156107d1578435845293850193928501926107b8565b98975050505050505050565b6000602082840312156107ef57600080fd5b81356001600160a01b038116811461080657600080fd5b9392505050565b634e487b7160e01b600052603260045260246000fd5b6001600160a01b0394851681529290931660208301526040820152606081019190915260a06080820181905260009082015260c0019056fea26469706673582212209675359b71d3665232d350edd304be56f55c8bb4bcf373f3804294174e6a218464736f6c63430008140033",
  "devdoc": {
    "errors": {
      "OwnableInvalidOwner(address)": [
        {
          "details": "The owner is not a valid owner account. (eg. `address(0)`)"
        }
      ],
      "OwnableUnauthorizedAccount(address)": [
        {
          "details": "The caller account is not authorized to perform an operation."
        }
      ]
    },
    "kind": "dev",
    "methods": {
      "owner()": {
        "details": "Returns the address of the current owner."
      },
      "renounceOwnership()": {
        "details": "Leaves the contract without owner. It will not be possible to call `onlyOwner` functions. Can only be called by the current owner. NOTE: Renouncing ownership will leave the contract without an owner, thereby disabling any functionality that is only available to the owner."
      },
      "transferOwnership(address)": {
        "details": "Transfers ownership of the contract to a new account (`newOwner`). Can only be called by the current owner."
      }
    },
    "version": 1
  },
  "userdoc": {
    "kind": "user",
    "methods": {},
    "version": 1
  },
  "storageLayout": {
    "storage": [
      {
        "astId": 8,
        "contract": "contracts/Forge.sol:Forge",
        "label": "_owner",
        "offset": 0,
        "slot": "0",
        "type": "t_address"
      },
      {
        "astId": 211,
        "contract": "contracts/Forge.sol:Forge",
        "label": "mint1155",
        "offset": 0,
        "slot": "1",
        "type": "t_contract(IMint1155)206"
      }
    ],
    "types": {
      "t_address": {
        "encoding": "inplace",
        "label": "address",
        "numberOfBytes": "20"
      },
      "t_contract(IMint1155)206": {
        "encoding": "inplace",
        "label": "contract IMint1155",
        "numberOfBytes": "20"
      }
    }
  }
}