{
  "address": "0x742f82A0704dB5F0442F6Cfaf3A4d937A79ec1c9",
  "abi": [
    {
      "inputs": [
        {
          "internalType": "string",
          "name": "_uri",
          "type": "string"
        }
      ],
      "stateMutability": "nonpayable",
      "type": "constructor"
    },
    {
      "inputs": [
        {
          "internalType": "address",
          "name": "sender",
          "type": "address"
        },
        {
          "internalType": "uint256",
          "name": "balance",
          "type": "uint256"
        },
        {
          "internalType": "uint256",
          "name": "needed",
          "type": "uint256"
        },
        {
          "internalType": "uint256",
          "name": "tokenId",
          "type": "uint256"
        }
      ],
      "name": "ERC1155InsufficientBalance",
      "type": "error"
    },
    {
      "inputs": [
        {
          "internalType": "address",
          "name": "approver",
          "type": "address"
        }
      ],
      "name": "ERC1155InvalidApprover",
      "type": "error"
    },
    {
      "inputs": [
        {
          "internalType": "uint256",
          "name": "idsLength",
          "type": "uint256"
        },
        {
          "internalType": "uint256",
          "name": "valuesLength",
          "type": "uint256"
        }
      ],
      "name": "ERC1155InvalidArrayLength",
      "type": "error"
    },
    {
      "inputs": [
        {
          "internalType": "address",
          "name": "operator",
          "type": "address"
        }
      ],
      "name": "ERC1155InvalidOperator",
      "type": "error"
    },
    {
      "inputs": [
        {
          "internalType": "address",
          "name": "receiver",
          "type": "address"
        }
      ],
      "name": "ERC1155InvalidReceiver",
      "type": "error"
    },
    {
      "inputs": [
        {
          "internalType": "address",
          "name": "sender",
          "type": "address"
        }
      ],
      "name": "ERC1155InvalidSender",
      "type": "error"
    },
    {
      "inputs": [
        {
          "internalType": "address",
          "name": "operator",
          "type": "address"
        },
        {
          "internalType": "address",
          "name": "owner",
          "type": "address"
        }
      ],
      "name": "ERC1155MissingApprovalForAll",
      "type": "error"
    },
    {
      "inputs": [
        {
          "internalType": "address",
          "name": "owner",
          "type": "address"
        }
      ],
      "name": "OwnableInvalidOwner",
      "type": "error"
    },
    {
      "inputs": [
        {
          "internalType": "address",
          "name": "account",
          "type": "address"
        }
      ],
      "name": "OwnableUnauthorizedAccount",
      "type": "error"
    },
    {
      "anonymous": false,
      "inputs": [
        {
          "indexed": true,
          "internalType": "address",
          "name": "account",
          "type": "address"
        },
        {
          "indexed": true,
          "internalType": "address",
          "name": "operator",
          "type": "address"
        },
        {
          "indexed": false,
          "internalType": "bool",
          "name": "approved",
          "type": "bool"
        }
      ],
      "name": "ApprovalForAll",
      "type": "event"
    },
    {
      "anonymous": false,
      "inputs": [
        {
          "indexed": true,
          "internalType": "address",
          "name": "previousOwner",
          "type": "address"
        },
        {
          "indexed": true,
          "internalType": "address",
          "name": "newOwner",
          "type": "address"
        }
      ],
      "name": "OwnershipTransferred",
      "type": "event"
    },
    {
      "anonymous": false,
      "inputs": [
        {
          "indexed": true,
          "internalType": "address",
          "name": "user",
          "type": "address"
        },
        {
          "indexed": false,
          "internalType": "uint256",
          "name": "fromId",
          "type": "uint256"
        },
        {
          "indexed": false,
          "internalType": "uint256",
          "name": "toId",
          "type": "uint256"
        }
      ],
      "name": "TokenTraded",
      "type": "event"
    },
    {
      "anonymous": false,
      "inputs": [
        {
          "indexed": true,
          "internalType": "address",
          "name": "operator",
          "type": "address"
        },
        {
          "indexed": true,
          "internalType": "address",
          "name": "from",
          "type": "address"
        },
        {
          "indexed": true,
          "internalType": "address",
          "name": "to",
          "type": "address"
        },
        {
          "indexed": false,
          "internalType": "uint256[]",
          "name": "ids",
          "type": "uint256[]"
        },
        {
          "indexed": false,
          "internalType": "uint256[]",
          "name": "values",
          "type": "uint256[]"
        }
      ],
      "name": "TransferBatch",
      "type": "event"
    },
    {
      "anonymous": false,
      "inputs": [
        {
          "indexed": true,
          "internalType": "address",
          "name": "operator",
          "type": "address"
        },
        {
          "indexed": true,
          "internalType": "address",
          "name": "from",
          "type": "address"
        },
        {
          "indexed": true,
          "internalType": "address",
          "name": "to",
          "type": "address"
        },
        {
          "indexed": false,
          "internalType": "uint256",
          "name": "id",
          "type": "uint256"
        },
        {
          "indexed": false,
          "internalType": "uint256",
          "name": "value",
          "type": "uint256"
        }
      ],
      "name": "TransferSingle",
      "type": "event"
    },
    {
      "anonymous": false,
      "inputs": [
        {
          "indexed": false,
          "internalType": "string",
          "name": "value",
          "type": "string"
        },
        {
          "indexed": true,
          "internalType": "uint256",
          "name": "id",
          "type": "uint256"
        }
      ],
      "name": "URI",
      "type": "event"
    },
    {
      "inputs": [],
      "name": "BattleAxe",
      "outputs": [
        {
          "internalType": "uint256",
          "name": "",
          "type": "uint256"
        }
      ],
      "stateMutability": "view",
      "type": "function"
    },
    {
      "inputs": [],
      "name": "EnchantedShield",
      "outputs": [
        {
          "internalType": "uint256",
          "name": "",
          "type": "uint256"
        }
      ],
      "stateMutability": "view",
      "type": "function"
    },
    {
      "inputs": [],
      "name": "FlamingSword",
      "outputs": [
        {
          "internalType": "uint256",
          "name": "",
          "type": "uint256"
        }
      ],
      "stateMutability": "view",
      "type": "function"
    },
    {
      "inputs": [],
      "name": "ForgeContract",
      "outputs": [
        {
          "internalType": "address",
          "name": "",
          "type": "address"
        }
      ],
      "stateMutability": "view",
      "type": "function"
    },
    {
      "inputs": [],
      "name": "HerosArmor",
      "outputs": [
        {
          "internalType": "uint256",
          "name": "",
          "type": "uint256"
        }
      ],
      "stateMutability": "view",
      "type": "function"
    },
    {
      "inputs": [],
      "name": "Potion",
      "outputs": [
        {
          "internalType": "uint256",
          "name": "",
          "type": "uint256"
        }
      ],
      "stateMutability": "view",
      "type": "function"
    },
    {
      "inputs": [],
      "name": "Shield",
      "outputs": [
        {
          "internalType": "uint256",
          "name": "",
          "type": "uint256"
        }
      ],
      "stateMutability": "view",
      "type": "function"
    },
    {
      "inputs": [],
      "name": "Sword",
      "outputs": [
        {
          "internalType": "uint256",
          "name": "",
          "type": "uint256"
        }
      ],
      "stateMutability": "view",
      "type": "function"
    },
    {
      "inputs": [
        {
          "internalType": "address",
          "name": "account",
          "type": "address"
        },
        {
          "internalType": "uint256",
          "name": "id",
          "type": "uint256"
        }
      ],
      "name": "balanceOf",
      "outputs": [
        {
          "internalType": "uint256",
          "name": "",
          "type": "uint256"
        }
      ],
      "stateMutability": "view",
      "type": "function"
    },
    {
      "inputs": [
        {
          "internalType": "address[]",
          "name": "accounts",
          "type": "address[]"
        },
        {
          "internalType": "uint256[]",
          "name": "ids",
          "type": "uint256[]"
        }
      ],
      "name": "balanceOfBatch",
      "outputs": [
        {
          "internalType": "uint256[]",
          "name": "",
          "type": "uint256[]"
        }
      ],
      "stateMutability": "view",
      "type": "function"
    },
    {
      "inputs": [
        {
          "internalType": "address",
          "name": "account",
          "type": "address"
        },
        {
          "internalType": "address",
          "name": "operator",
          "type": "address"
        }
      ],
      "name": "isApprovedForAll",
      "outputs": [
        {
          "internalType": "bool",
          "name": "",
          "type": "bool"
        }
      ],
      "stateMutability": "view",
      "type": "function"
    },
    {
      "inputs": [
        {
          "internalType": "address",
          "name": "",
          "type": "address"
        },
        {
          "internalType": "uint256",
          "name": "",
          "type": "uint256"
        }
      ],
      "name": "lastMinted",
      "outputs": [
        {
          "internalType": "uint256",
          "name": "",
          "type": "uint256"
        }
      ],
      "stateMutability": "view",
      "type": "function"
    },
    {
      "inputs": [
        {
          "internalType": "address",
          "name": "account",
          "type": "address"
        },
        {
          "internalType": "uint256",
          "name": "id",
          "type": "uint256"
        },
        {
          "internalType": "uint256",
          "name": "amount",
          "type": "uint256"
        },
        {
          "internalType": "bytes",
          "name": "data",
          "type": "bytes"
        }
      ],
      "name": "mint",
      "outputs": [],
      "stateMutability": "nonpayable",
      "type": "function"
    },
    {
      "inputs": [
        {
          "internalType": "address",
          "name": "to",
          "type": "address"
        },
        {
          "internalType": "uint256",
          "name": "id",
          "type": "uint256"
        },
        {
          "internalType": "uint256",
          "name": "amount",
          "type": "uint256"
        },
        {
          "internalType": "bytes",
          "name": "data",
          "type": "bytes"
        }
      ],
      "name": "mintByForge",
      "outputs": [],
      "stateMutability": "nonpayable",
      "type": "function"
    },
    {
      "inputs": [],
      "name": "owner",
      "outputs": [
        {
          "internalType": "address",
          "name": "",
          "type": "address"
        }
      ],
      "stateMutability": "view",
      "type": "function"
    },
    {
      "inputs": [],
      "name": "renounceOwnership",
      "outputs": [],
      "stateMutability": "nonpayable",
      "type": "function"
    },
    {
      "inputs": [
        {
          "internalType": "address",
          "name": "from",
          "type": "address"
        },
        {
          "internalType": "address",
          "name": "to",
          "type": "address"
        },
        {
          "internalType": "uint256[]",
          "name": "ids",
          "type": "uint256[]"
        },
        {
          "internalType": "uint256[]",
          "name": "values",
          "type": "uint256[]"
        },
        {
          "internalType": "bytes",
          "name": "data",
          "type": "bytes"
        }
      ],
      "name": "safeBatchTransferFrom",
      "outputs": [],
      "stateMutability": "nonpayable",
      "type": "function"
    },
    {
      "inputs": [
        {
          "internalType": "address",
          "name": "from",
          "type": "address"
        },
        {
          "internalType": "address",
          "name": "to",
          "type": "address"
        },
        {
          "internalType": "uint256",
          "name": "id",
          "type": "uint256"
        },
        {
          "internalType": "uint256",
          "name": "value",
          "type": "uint256"
        },
        {
          "internalType": "bytes",
          "name": "data",
          "type": "bytes"
        }
      ],
      "name": "safeTransferFrom",
      "outputs": [],
      "stateMutability": "nonpayable",
      "type": "function"
    },
    {
      "inputs": [
        {
          "internalType": "address",
          "name": "operator",
          "type": "address"
        },
        {
          "internalType": "bool",
          "name": "approved",
          "type": "bool"
        }
      ],
      "name": "setApprovalForAll",
      "outputs": [],
      "stateMutability": "nonpayable",
      "type": "function"
    },
    {
      "inputs": [
        {
          "internalType": "address",
          "name": "_forge",
          "type": "address"
        }
      ],
      "name": "setForgeContract",
      "outputs": [],
      "stateMutability": "nonpayable",
      "type": "function"
    },
    {
      "inputs": [
        {
          "internalType": "bytes4",
          "name": "interfaceId",
          "type": "bytes4"
        }
      ],
      "name": "supportsInterface",
      "outputs": [
        {
          "internalType": "bool",
          "name": "",
          "type": "bool"
        }
      ],
      "stateMutability": "view",
      "type": "function"
    },
    {
      "inputs": [
        {
          "internalType": "uint256",
          "name": "fromId",
          "type": "uint256"
        },
        {
          "internalType": "uint256",
          "name": "toId",
          "type": "uint256"
        }
      ],
      "name": "trade",
      "outputs": [],
      "stateMutability": "nonpayable",
      "type": "function"
    },
    {
      "inputs": [
        {
          "internalType": "address",
          "name": "newOwner",
          "type": "address"
        }
      ],
      "name": "transferOwnership",
      "outputs": [],
      "stateMutability": "nonpayable",
      "type": "function"
    },
    {
      "inputs": [
        {
          "internalType": "uint256",
          "name": "",
          "type": "uint256"
        }
      ],
      "name": "uri",
      "outputs": [
        {
          "internalType": "string",
          "name": "",
          "type": "string"
        }
      ],
      "stateMutability": "view",
      "type": "function"
    }
  ],
  "transactionHash": "0xa71012668f9330515531110a8137746d8c5fef8f0f03da782c03d7abe309e46a",
  "args": [
    "https://bafybeicce3jcvicicohkrv5uqsezaeeiavgo7cl7chwg3eg3jhcecdrp5y.ipfs.w3s.link/"
  ],
  "numDeployments": 2,
  "solcInputHash": "2500858e89d274f56e4f312986a59fba",
  "bytecode": "0x60806040523480156200001157600080fd5b5060405162001c1c38038062001c1c8339810160408190526200003491620000fe565b3381620000418162000084565b506001600160a01b0381166200007157604051631e4fbdf760e01b81526000600482015260240160405180910390fd5b6200007c8162000096565b50506200032e565b600262000092828262000262565b5050565b600380546001600160a01b038381166001600160a01b0319831681179093556040519116919082907f8be0079c531659141344cd1fd0a4f28419497f9722a3daafe3b4186f6b6457e090600090a35050565b634e487b7160e01b600052604160045260246000fd5b600060208083850312156200011257600080fd5b82516001600160401b03808211156200012a57600080fd5b818501915085601f8301126200013f57600080fd5b815181811115620001545762000154620000e8565b604051601f8201601f19908116603f011681019083821181831017156200017f576200017f620000e8565b8160405282815288868487010111156200019857600080fd5b600093505b82841015620001bc57848401860151818501870152928501926200019d565b600086848301015280965050505050505092915050565b600181811c90821680620001e857607f821691505b6020821081036200020957634e487b7160e01b600052602260045260246000fd5b50919050565b601f8211156200025d57600081815260208120601f850160051c81016020861015620002385750805b601f850160051c820191505b81811015620002595782815560010162000244565b5050505b505050565b81516001600160401b038111156200027e576200027e620000e8565b62000296816200028f8454620001d3565b846200020f565b602080601f831160018114620002ce5760008415620002b55750858301515b600019600386901b1c1916600185901b17855562000259565b600085815260208120601f198616915b82811015620002ff57888601518255948401946001909101908401620002de565b50858210156200031e5787850151600019600388901b60f8161c191681555b5050505050600190811b01905550565b6118de806200033e6000396000f3fe608060405234801561001057600080fd5b50600436106101575760003560e01c80637abb84f0116100c3578063e20be69a1161007c578063e20be69a146102d9578063e4d1c891146102ec578063e985e9c5146102f4578063f242432a14610307578063f2fde38b1461031a578063f7be1e2e1461032d57600080fd5b80637abb84f0146102535780638da5cb5b1461027e578063a22cb465146102a3578063a765a1ce146102b6578063dd09defc146102c9578063df9f445e146102d157600080fd5b806332297936116101155780633229793614610200578063490e5ced146102085780634e1273f41461021057806356de94af14610230578063715018a614610238578063731133e91461024057600080fd5b8062fdd58e1461015c57806301ffc9a71461018257806307c9ae23146101a55780630e89341c146101ba5780631785ae76146101da5780632eb2c2d6146101ed575b600080fd5b61016f61016a3660046111e2565b610335565b6040519081526020015b60405180910390f35b610195610190366004611222565b61035d565b6040519015158152602001610179565b6101b86101b3366004611246565b6103ad565b005b6101cd6101c8366004611261565b6103d7565b60405161017991906112c0565b6101b86101e836600461138a565b61046b565b6101b86101fb36600461147a565b610551565b61016f600181565b61016f600081565b61022361021e366004611524565b6105b8565b604051610179919061161f565b61016f600481565b6101b861068d565b6101b861024e36600461138a565b6106a1565b61016f6102613660046111e2565b600560209081526000928352604080842090915290825290205481565b6003546001600160a01b03165b6040516001600160a01b039091168152602001610179565b6101b86102b1366004611632565b6107cb565b60045461028b906001600160a01b031681565b61016f600681565b61016f600581565b6101b86102e736600461166e565b6107da565b61016f600281565b610195610302366004611690565b6109af565b6101b86103153660046116c3565b6109dd565b6101b8610328366004611246565b610a3c565b61016f600381565b6000818152602081815260408083206001600160a01b03861684529091529020545b92915050565b60006001600160e01b03198216636cdb3d1360e11b148061038e57506001600160e01b031982166303a24d0760e21b145b8061035757506301ffc9a760e01b6001600160e01b0319831614610357565b6103b5610a7a565b600480546001600160a01b0319166001600160a01b0392909216919091179055565b6060600280546103e690611728565b80601f016020809104026020016040519081016040528092919081815260200182805461041290611728565b801561045f5780601f106104345761010080835404028352916020019161045f565b820191906000526020600020905b81548152906001019060200180831161044257829003601f168201915b50505050509050919050565b6004546001600160a01b031633146104e15760405162461bcd60e51b815260206004820152602e60248201527f4f6e6c792074686520466f72676520636f6e74726163742063616e2063616c6c60448201526d103a3434b990333ab731ba34b7b760911b60648201526084015b60405180910390fd5b600383101580156104f3575060068311155b61053f5760405162461bcd60e51b815260206004820152601b60248201527f466f7267652063616e206f6e6c79206d696e742049447320332d36000000000060448201526064016104d8565b61054b84848484610aa7565b50505050565b336001600160a01b0386168114801590610572575061057086826109af565b155b156105a35760405163711bec9160e11b81526001600160a01b038083166004830152871660248201526044016104d8565b6105b08686868686610b04565b505050505050565b606081518351146105e95781518351604051635b05999160e01b8152600481019290925260248201526044016104d8565b6000835167ffffffffffffffff811115610605576106056112d3565b60405190808252806020026020018201604052801561062e578160200160208202803683370190505b50905060005b84518110156106855760208082028601015161065890602080840287010151610335565b82828151811061066a5761066a611762565b602090810291909101015261067e8161178e565b9050610634565b509392505050565b610695610a7a565b61069f6000610b6b565b565b60028311156107085760405162461bcd60e51b815260206004820152602d60248201527f546f6b656e204944206d757374206265206265747765656e203020616e64203260448201526c20617265206d696e7461626c6560981b60648201526084016104d8565b6001600160a01b038416600090815260056020908152604080832086845290915290205461073790603c6117a7565b42116107955760405162461bcd60e51b815260206004820152602760248201527f596f752063616e206f6e6c79206d696e74206f6e6365206576657279203630206044820152667365636f6e647360c81b60648201526084016104d8565b6107a184848484610aa7565b50506001600160a01b03909116600090815260056020908152604080832093835292905220429055565b6107d6338383610bbd565b5050565b600282111561083c5760405162461bcd60e51b815260206004820152602860248201527f596f752063616e206f6e6c79207472616465206974656d732077697468204944604482015267399018103a37901960c11b60648201526084016104d8565b60028111156108a05760405162461bcd60e51b815260206004820152602a60248201527f596f752063616e206f6e6c792072656365697665206974656d7320776974682060448201526924a2399018103a37901960b11b60648201526084016104d8565b8082036108ef5760405162461bcd60e51b815260206004820152601e60248201527f596f752063616e6e6f74207472616465207468652073616d65206974656d000060448201526064016104d8565b60006108fb3384610335565b116109485760405162461bcd60e51b815260206004820152601860248201527f596f7520646f206e6f74206f776e2074686973206974656d000000000000000060448201526064016104d8565b61095433836001610c53565b6109703382600160405180602001604052806000815250610aa7565b604080518381526020810183905233917f3091f4e05dc693cbc5f916a74ce5a6209820f4ff3dc4f93767d1fa26f46f16d6910160405180910390a25050565b6001600160a01b03918216600090815260016020908152604080832093909416825291909152205460ff1690565b336001600160a01b03861681148015906109fe57506109fc86826109af565b155b15610a2f5760405163711bec9160e11b81526001600160a01b038083166004830152871660248201526044016104d8565b6105b08686868686610cbb565b610a44610a7a565b6001600160a01b038116610a6e57604051631e4fbdf760e01b8152600060048201526024016104d8565b610a7781610b6b565b50565b6003546001600160a01b0316331461069f5760405163118cdaa760e01b81523360048201526024016104d8565b6001600160a01b038416610ad157604051632bfa23e760e11b8152600060048201526024016104d8565b604080516001808252602082018690528183019081526060820185905260808201909252906105b0600087848487610d49565b6001600160a01b038416610b2e57604051632bfa23e760e11b8152600060048201526024016104d8565b6001600160a01b038516610b5757604051626a0d4560e21b8152600060048201526024016104d8565b610b648585858585610d49565b5050505050565b600380546001600160a01b038381166001600160a01b0319831681179093556040519116919082907f8be0079c531659141344cd1fd0a4f28419497f9722a3daafe3b4186f6b6457e090600090a35050565b6001600160a01b038216610be65760405162ced3e160e81b8152600060048201526024016104d8565b6001600160a01b03838116600081815260016020908152604080832094871680845294825291829020805460ff191686151590811790915591519182527f17307eab39ab6107e8899845ad3d59bd9653f200f220920489ca2b5937696c31910160405180910390a3505050565b6001600160a01b038316610c7c57604051626a0d4560e21b8152600060048201526024016104d8565b604080516001808252602082018590528183019081526060820184905260a08201909252600060808201818152919291610b6491879185908590610d49565b6001600160a01b038416610ce557604051632bfa23e760e11b8152600060048201526024016104d8565b6001600160a01b038516610d0e57604051626a0d4560e21b8152600060048201526024016104d8565b60408051600180825260208201869052818301908152606082018590526080820190925290610d408787848487610d49565b50505050505050565b610d5585858585610d9c565b6001600160a01b03841615610b645782513390600103610d8e5760208481015190840151610d87838989858589610fb9565b50506105b0565b6105b08187878787876110dd565b8051825114610dcb5781518151604051635b05999160e01b8152600481019290925260248201526044016104d8565b3360005b8351811015610eda576020818102858101820151908501909101516001600160a01b03881615610e82576000828152602081815260408083206001600160a01b038c16845290915290205481811015610e5b576040516303dee4c560e01b81526001600160a01b038a1660048201526024810182905260448101839052606481018490526084016104d8565b6000838152602081815260408083206001600160a01b038d16845290915290209082900390555b6001600160a01b03871615610ec7576000828152602081815260408083206001600160a01b038b16845290915281208054839290610ec19084906117a7565b90915550505b505080610ed39061178e565b9050610dcf565b508251600103610f5b5760208301516000906020840151909150856001600160a01b0316876001600160a01b0316846001600160a01b03167fc3d58168c5ae7397731d063d5bbf3d657854427343f4c083240f7aacaa2d0f628585604051610f4c929190918252602082015260400190565b60405180910390a45050610b64565b836001600160a01b0316856001600160a01b0316826001600160a01b03167f4a39dc06d4c0dbc64b70af90fd698a233a518aa5d07e595d983b8c0526c8f7fb8686604051610faa9291906117ba565b60405180910390a45050505050565b6001600160a01b0384163b156105b05760405163f23a6e6160e01b81526001600160a01b0385169063f23a6e6190610ffd90899089908890889088906004016117e8565b6020604051808303816000875af1925050508015611038575060408051601f3d908101601f191682019092526110359181019061182d565b60015b6110a1573d808015611066576040519150601f19603f3d011682016040523d82523d6000602084013e61106b565b606091505b50805160000361109957604051632bfa23e760e11b81526001600160a01b03861660048201526024016104d8565b805181602001fd5b6001600160e01b0319811663f23a6e6160e01b14610d4057604051632bfa23e760e11b81526001600160a01b03861660048201526024016104d8565b6001600160a01b0384163b156105b05760405163bc197c8160e01b81526001600160a01b0385169063bc197c8190611121908990899088908890889060040161184a565b6020604051808303816000875af192505050801561115c575060408051601f3d908101601f191682019092526111599181019061182d565b60015b61118a573d808015611066576040519150601f19603f3d011682016040523d82523d6000602084013e61106b565b6001600160e01b0319811663bc197c8160e01b14610d4057604051632bfa23e760e11b81526001600160a01b03861660048201526024016104d8565b80356001600160a01b03811681146111dd57600080fd5b919050565b600080604083850312156111f557600080fd5b6111fe836111c6565b946020939093013593505050565b6001600160e01b031981168114610a7757600080fd5b60006020828403121561123457600080fd5b813561123f8161120c565b9392505050565b60006020828403121561125857600080fd5b61123f826111c6565b60006020828403121561127357600080fd5b5035919050565b6000815180845260005b818110156112a057602081850181015186830182015201611284565b506000602082860101526020601f19601f83011685010191505092915050565b60208152600061123f602083018461127a565b634e487b7160e01b600052604160045260246000fd5b604051601f8201601f1916810167ffffffffffffffff81118282101715611312576113126112d3565b604052919050565b600082601f83011261132b57600080fd5b813567ffffffffffffffff811115611345576113456112d3565b611358601f8201601f19166020016112e9565b81815284602083860101111561136d57600080fd5b816020850160208301376000918101602001919091529392505050565b600080600080608085870312156113a057600080fd5b6113a9856111c6565b93506020850135925060408501359150606085013567ffffffffffffffff8111156113d357600080fd5b6113df8782880161131a565b91505092959194509250565b600067ffffffffffffffff821115611405576114056112d3565b5060051b60200190565b600082601f83011261142057600080fd5b81356020611435611430836113eb565b6112e9565b82815260059290921b8401810191818101908684111561145457600080fd5b8286015b8481101561146f5780358352918301918301611458565b509695505050505050565b600080600080600060a0868803121561149257600080fd5b61149b866111c6565b94506114a9602087016111c6565b9350604086013567ffffffffffffffff808211156114c657600080fd5b6114d289838a0161140f565b945060608801359150808211156114e857600080fd5b6114f489838a0161140f565b9350608088013591508082111561150a57600080fd5b506115178882890161131a565b9150509295509295909350565b6000806040838503121561153757600080fd5b823567ffffffffffffffff8082111561154f57600080fd5b818501915085601f83011261156357600080fd5b81356020611573611430836113eb565b82815260059290921b8401810191818101908984111561159257600080fd5b948201945b838610156115b7576115a8866111c6565b82529482019490820190611597565b965050860135925050808211156115cd57600080fd5b506115da8582860161140f565b9150509250929050565b600081518084526020808501945080840160005b83811015611614578151875295820195908201906001016115f8565b509495945050505050565b60208152600061123f60208301846115e4565b6000806040838503121561164557600080fd5b61164e836111c6565b91506020830135801515811461166357600080fd5b809150509250929050565b6000806040838503121561168157600080fd5b50508035926020909101359150565b600080604083850312156116a357600080fd5b6116ac836111c6565b91506116ba602084016111c6565b90509250929050565b600080600080600060a086880312156116db57600080fd5b6116e4866111c6565b94506116f2602087016111c6565b93506040860135925060608601359150608086013567ffffffffffffffff81111561171c57600080fd5b6115178882890161131a565b600181811c9082168061173c57607f821691505b60208210810361175c57634e487b7160e01b600052602260045260246000fd5b50919050565b634e487b7160e01b600052603260045260246000fd5b634e487b7160e01b600052601160045260246000fd5b6000600182016117a0576117a0611778565b5060010190565b8082018082111561035757610357611778565b6040815260006117cd60408301856115e4565b82810360208401526117df81856115e4565b95945050505050565b6001600160a01b03868116825285166020820152604081018490526060810183905260a0608082018190526000906118229083018461127a565b979650505050505050565b60006020828403121561183f57600080fd5b815161123f8161120c565b6001600160a01b0386811682528516602082015260a060408201819052600090611876908301866115e4565b828103606084015261188881866115e4565b9050828103608084015261189c818561127a565b9897505050505050505056fea2646970667358221220d0ada1cfce358fa0d7dc4feddf379cc8c8d88f764fb5bd43bb2c05ddc7d296e064736f6c63430008140033",
  "devdoc": {
    "errors": {
      "ERC1155InsufficientBalance(address,uint256,uint256,uint256)": [
        {
          "details": "Indicates an error related to the current `balance` of a `sender`. Used in transfers.",
          "params": {
            "balance": "Current balance for the interacting account.",
            "needed": "Minimum amount required to perform a transfer.",
            "sender": "Address whose tokens are being transferred.",
            "tokenId": "Identifier number of a token."
          }
        }
      ],
      "ERC1155InvalidApprover(address)": [
        {
          "details": "Indicates a failure with the `approver` of a token to be approved. Used in approvals.",
          "params": {
            "approver": "Address initiating an approval operation."
          }
        }
      ],
      "ERC1155InvalidArrayLength(uint256,uint256)": [
        {
          "details": "Indicates an array length mismatch between ids and values in a safeBatchTransferFrom operation. Used in batch transfers.",
          "params": {
            "idsLength": "Length of the array of token identifiers",
            "valuesLength": "Length of the array of token amounts"
          }
        }
      ],
      "ERC1155InvalidOperator(address)": [
        {
          "details": "Indicates a failure with the `operator` to be approved. Used in approvals.",
          "params": {
            "operator": "Address that may be allowed to operate on tokens without being their owner."
          }
        }
      ],
      "ERC1155InvalidReceiver(address)": [
        {
          "details": "Indicates a failure with the token `receiver`. Used in transfers.",
          "params": {
            "receiver": "Address to which tokens are being transferred."
          }
        }
      ],
      "ERC1155InvalidSender(address)": [
        {
          "details": "Indicates a failure with the token `sender`. Used in transfers.",
          "params": {
            "sender": "Address whose tokens are being transferred."
          }
        }
      ],
      "ERC1155MissingApprovalForAll(address,address)": [
        {
          "details": "Indicates a failure with the `operator`s approval. Used in transfers.",
          "params": {
            "operator": "Address that may be allowed to operate on tokens without being their owner.",
            "owner": "Address of the current owner of a token."
          }
        }
      ],
      "OwnableInvalidOwner(address)": [
        {
          "details": "The owner is not a valid owner account. (eg. `address(0)`)"
        }
      ],
      "OwnableUnauthorizedAccount(address)": [
        {
          "details": "The caller account is not authorized to perform an operation."
        }
      ]
    },
    "events": {
      "ApprovalForAll(address,address,bool)": {
        "details": "Emitted when `account` grants or revokes permission to `operator` to transfer their tokens, according to `approved`."
      },
      "TransferBatch(address,address,address,uint256[],uint256[])": {
        "details": "Equivalent to multiple {TransferSingle} events, where `operator`, `from` and `to` are the same for all transfers."
      },
      "TransferSingle(address,address,address,uint256,uint256)": {
        "details": "Emitted when `value` amount of tokens of type `id` are transferred from `from` to `to` by `operator`."
      },
      "URI(string,uint256)": {
        "details": "Emitted when the URI for token type `id` changes to `value`, if it is a non-programmatic URI. If an {URI} event was emitted for `id`, the standard https://eips.ethereum.org/EIPS/eip-1155#metadata-extensions[guarantees] that `value` will equal the value returned by {IERC1155MetadataURI-uri}."
      }
    },
    "kind": "dev",
    "methods": {
      "balanceOf(address,uint256)": {
        "details": "See {IERC1155-balanceOf}."
      },
      "balanceOfBatch(address[],uint256[])": {
        "details": "See {IERC1155-balanceOfBatch}. Requirements: - `accounts` and `ids` must have the same length."
      },
      "isApprovedForAll(address,address)": {
        "details": "See {IERC1155-isApprovedForAll}."
      },
      "owner()": {
        "details": "Returns the address of the current owner."
      },
      "renounceOwnership()": {
        "details": "Leaves the contract without owner. It will not be possible to call `onlyOwner` functions. Can only be called by the current owner. NOTE: Renouncing ownership will leave the contract without an owner, thereby disabling any functionality that is only available to the owner."
      },
      "safeBatchTransferFrom(address,address,uint256[],uint256[],bytes)": {
        "details": "See {IERC1155-safeBatchTransferFrom}."
      },
      "safeTransferFrom(address,address,uint256,uint256,bytes)": {
        "details": "See {IERC1155-safeTransferFrom}."
      },
      "setApprovalForAll(address,bool)": {
        "details": "See {IERC1155-setApprovalForAll}."
      },
      "supportsInterface(bytes4)": {
        "details": "See {IERC165-supportsInterface}."
      },
      "transferOwnership(address)": {
        "details": "Transfers ownership of the contract to a new account (`newOwner`). Can only be called by the current owner."
      },
      "uri(uint256)": {
        "details": "See {IERC1155MetadataURI-uri}. This implementation returns the same URI for *all* token types. It relies on the token type ID substitution mechanism https://eips.ethereum.org/EIPS/eip-1155#metadata[defined in the EIP]. Clients calling this function must replace the `\\{id\\}` substring with the actual token type ID."
      }
    },
    "version": 1
  },
  "userdoc": {
    "kind": "user",
    "methods": {},
    "version": 1
  },
  "storageLayout": {
    "storage": [
      {
        "astId": 326,
        "contract": "contracts/Mint1155.sol:Mint1155",
        "label": "_balances",
        "offset": 0,
        "slot": "0",
        "type": "t_mapping(t_uint256,t_mapping(t_address,t_uint256))"
      },
      {
        "astId": 332,
        "contract": "contracts/Mint1155.sol:Mint1155",
        "label": "_operatorApprovals",
        "offset": 0,
        "slot": "1",
        "type": "t_mapping(t_address,t_mapping(t_address,t_bool))"
      },
      {
        "astId": 334,
        "contract": "contracts/Mint1155.sol:Mint1155",
        "label": "_uri",
        "offset": 0,
        "slot": "2",
        "type": "t_string_storage"
      },
      {
        "astId": 8,
        "contract": "contracts/Mint1155.sol:Mint1155",
        "label": "_owner",
        "offset": 0,
        "slot": "3",
        "type": "t_address"
      },
      {
        "astId": 2961,
        "contract": "contracts/Mint1155.sol:Mint1155",
        "label": "ForgeContract",
        "offset": 0,
        "slot": "4",
        "type": "t_address"
      },
      {
        "astId": 2988,
        "contract": "contracts/Mint1155.sol:Mint1155",
        "label": "lastMinted",
        "offset": 0,
        "slot": "5",
        "type": "t_mapping(t_address,t_mapping(t_uint256,t_uint256))"
      }
    ],
    "types": {
      "t_address": {
        "encoding": "inplace",
        "label": "address",
        "numberOfBytes": "20"
      },
      "t_bool": {
        "encoding": "inplace",
        "label": "bool",
        "numberOfBytes": "1"
      },
      "t_mapping(t_address,t_bool)": {
        "encoding": "mapping",
        "key": "t_address",
        "label": "mapping(address => bool)",
        "numberOfBytes": "32",
        "value": "t_bool"
      },
      "t_mapping(t_address,t_mapping(t_address,t_bool))": {
        "encoding": "mapping",
        "key": "t_address",
        "label": "mapping(address => mapping(address => bool))",
        "numberOfBytes": "32",
        "value": "t_mapping(t_address,t_bool)"
      },
      "t_mapping(t_address,t_mapping(t_uint256,t_uint256))": {
        "encoding": "mapping",
        "key": "t_address",
        "label": "mapping(address => mapping(uint256 => uint256))",
        "numberOfBytes": "32",
        "value": "t_mapping(t_uint256,t_uint256)"
      },
      "t_mapping(t_address,t_uint256)": {
        "encoding": "mapping",
        "key": "t_address",
        "label": "mapping(address => uint256)",
        "numberOfBytes": "32",
        "value": "t_uint256"
      },
      "t_mapping(t_uint256,t_mapping(t_address,t_uint256))": {
        "encoding": "mapping",
        "key": "t_uint256",
        "label": "mapping(uint256 => mapping(address => uint256))",
        "numberOfBytes": "32",
        "value": "t_mapping(t_address,t_uint256)"
      },
      "t_mapping(t_uint256,t_uint256)": {
        "encoding": "mapping",
        "key": "t_uint256",
        "label": "mapping(uint256 => uint256)",
        "numberOfBytes": "32",
        "value": "t_uint256"
      },
      "t_string_storage": {
        "encoding": "bytes",
        "label": "string",
        "numberOfBytes": "32"
      },
      "t_uint256": {
        "encoding": "inplace",
        "label": "uint256",
        "numberOfBytes": "32"
      }
    }
  }
}